:020000040800F2
:10000000F8B90120451A0008890400088B0400088B
:100010008F04000893040008970400080000000003
:100020000000000000000000000000009B04000829
:100030009D040008000000009F040008A1040008BF
:100040005F1A00085F1A00085F1A00085F1A0008AC
:100050005F1A00085F1A00081D0D0008D50D000882
:100060008D0E0008710F00085F1A00085F1A000863
:100070005F1A00085F1A00085F1A00085F1A00087C
:100080005F1A00085F1A00085F1A00085F1A00086C
:100090005F1A00085F1A00085F1A00085F1A00085C
:1000A0005F1A00085F1A00085F1A00085F1A00084C
:1000B0005F1A00085F1A0008DB5700085F1A000883
:1000C0005F1A00085F1A00085F1A00085F1A00082C
:1000D0005F1A00089B5200085F1A00085F1A0008A8
:1000E0005F1A00085F1A00085F1A00085F1A00080C
:1000F0005F1A00085F1A00085F1A00085F1A0008FC
:100100005F1A00085F1A00085F1A00085F1A0008EB
:100110005F1A00085F1A00085F1A00085F1A0008DB
:100120005F1A00085F1A00085F1A00085F1A0008CB
:100130005F1A00086F1800085F1A00085F1A0008AD
:100140005F1A00085F1A00085F1A00085F1A0008AB
:100150005F1A00085F1A00085F1A00085F1A00089B
:100160005F1A00085F1A00085F1A00085F1A00088B
:100170005F1A00085F1A00085F1A00085F1A00087B
:100180005F1A00085F1A000800F002F800F06DF82E
:100190000AA090E8000C82448344AAF10107DA45E2
:1001A00001D100F062F8AFF2090EBAE80F0013F0C7
:1001B000010F18BFFB1A43F00103184778BE000077
:1001C00098BE00000A444FF0000C10F8013B13F0F9
:1001D000070408BF10F8014B1D1108BF10F8015BA0
:1001E000641E05D010F8016B641E01F8016BF9D193
:1001F00013F0080F1EBF10F8014BAD1C0C1B09D1EA
:100200006D1E58BF01F801CBFAD505E014F8016B5B
:1002100001F8016B6D1EF9D59142D6D370470000ED
:100220000023002400250026103A28BF78C1FBD8FF
:10023000520728BF30C148BF0B60704764290BF0DC
:10024000C78275290BF0C48278290BF0FD826329DF
:100250000BF05C8573290BF06185002070471FB59A
:100260000BF0C7FD1FBD10B510BD0BF089FD114689
:10027000FFF7F5FF00F0A6F80BF0A7FD03B4FFF7BA
:10028000F2FF03BC04F0A6FF08B50246002104E01B
:10029000505C0DF80100481CC1B20429F8DB00983D
:1002A00008BD08B502460092002004E01DF80030A9
:1002B0000B54431CD8B20428F8DB08BD002007E02B
:1002C0006749014491F8101A664A1154411CC8B29A
:1002D0000C28F5DB704710B52423002262496348DF
:1002E00001F01BF9604800884AF61E51884240D050
:1002F00008465D49088000215B488171C1714BF659
:10030000803181600A21C160C02057490874A8214A
:1003100055484174012181741E21C174FF2101756A
:10032000417581750021C175C0210176A8214176F2
:1003300001218176C17641F2BA3181830221817730
:100340000021C17780F8201046480178464880F89F
:10035000211044484178444880F82210414881786F
:10036000414880F823102423002201463F4801F031
:1003700002F910BD10B5242300223B493B4801F08F
:10038000FAF810BD3A483B490860486000204872BE
:1003900008728872704710B500F07CFC4FF4007052
:1003A000354908800A2000F0D5FE4FF4007032492C
:1003B000891C08800A2000F0CDFE00F05BFCFFF7EE
:1003C000E1FF10BD4FF4A06001F05CFB00F034FED3
:1003D00001F09DF8002804DA80202849088000BF39
:1003E000FEE700F08FFE00F045FCFFF7CBFF242175
:1003F0001D480BF0FDFBFFF761FFFFF76CFF06E008
:1004000080201E4908804FF4966000F0AFFE05F092
:10041000F2FF0028F4D180201849891C08804FF48D
:100420007A7000F0A3FE06F095FA80201349088048
:100430004FF4FA7000F09AFE80201049891C088061
:100440000DE00F48007800F0030040B110200D4986
:10045000088006F0B9FA10200A49891E0880F0E7E2
:100460000070FF1F1802002024020020003001400D
:10047000D4040020C80400201804024018080240D8
:10048000C60100201A140240704700BFFEE700BFFB
:10049000FEE700BFFEE700BFFEE77047704770470A
:1004A000704700000CB5002001900090764800686D
:1004B00040F480307449086000BF7348006800F45D
:1004C000003000900198401C0190009818B90198E4
:1004D000B0F5A04FF1D16C48006800F4003010B1C5
:1004E0000120009001E0002000900098012846D1F2
:1004F00065484030006840F08050634940310860F2
:100500006248006840F44040604908605E48083036
:1005100000685D49083108600846006840F4004002
:1005200008600846006840F4A05008605848091F59
:100530000860081F006840F08070091F086000BF55
:100540005148006800F000700028F9D040F20570B2
:10055000504908604C480830006820F003004A49C0
:10056000083108600846006840F00200086000BFDB
:1005700045480830006800F00C000828F8D10CBD90
:1005800010B54548006840F47000434908603E4893
:10059000006840F001003C49086000203A490831F9
:1005A0000860394800683D490840374908603C48C0
:1005B000091D0860081F006820F48020091F0860DA
:1005C000002031490C310860FFF76CFF4FF00060EC
:1005D00031498039086010BD70B500200022022327
:1005E00000240221284D08352D6805F00C0020B1AB
:1005F000042806D0082834D107E02A4D2A4E356059
:1006000033E02A4D284E35602FE01F4D2D1D2D68FB
:10061000C5F380541C4D2D1D2D6805F03F0154B1CC
:10062000224DB5FBF1F5184E361D3668C6F3881617
:1006300005FB06F209E01B4DB5FBF1F5124E361D28
:100640003668C6F3881605FB06F20F4D2D1D2D6882
:10065000C5F301456D1C6B00B2FBF3F5124E35601E
:1006600003E0104D104E356000BF00BF064D083549
:100670002D68C5F303150E4E705D0B4D2D68C540FA
:10068000094E356070BD0000003802400070004027
:1006900008544007003C024088ED00E0FFFFF6FEF2
:1006A000103000240024F4000000002000127A0022
:1006B000040000201CB501215F2002F05BF800203F
:1006C0008DF8060001208DF8070002208DF8040047
:1006D00003208DF805004FF4804000906946F948EA
:1006E00001F0AAFD0C220E21F64801F030FE4FF475
:1006F000004000906946F34801F09EFD0C220F2156
:10070000F04801F024FE012000906946ED4801F018
:1007100093FD0C220021EB4801F019FE022000900D
:100720006946E84801F088FD0C220121E54801F006
:100730000EFE802000906946E34801F07DFD0C220A
:100740000721E14801F003FE4FF4807000906946F4
:10075000DD4801F071FD0C220821DB4801F0F7FDB6
:100760004FF4007000906946D74801F065FD0C22F7
:100770000921D54801F0EBFD4FF4806000906946F7
:10078000D14801F059FD0C220A21CF4801F0DFFDCC
:100790004FF4006000906946CB4801F04DFD0C22FB
:1007A0000B21C94801F0D3FD4FF4805000906946F9
:1007B000C54801F041FD0C221146C34801F0C7FDB8
:1007C0004FF4005000906946BF4801F035FD0C22FF
:1007D0000D21BD4801F0BBFD4FF4804000906946FB
:1007E000B94801F029FD0C220E21B74801F0AFFDF8
:1007F0004FF4004000906946B34801F01DFD0C2203
:100800000F21B14801F0A3FD4FF4807000906946BC
:10081000AC4801F011FD0C220821AA4801F097FD17
:100820004FF4007000906946A64801F005FD0C22C7
:100830000921A44801F08BFD4FF4806000906946C7
:10084000A04801F0F9FC0C220A219E4801F07FFD2E
:100850008020009069469B4801F0EEFC0C220721A5
:10086000984801F074FD4FF4007000906946974875
:1008700001F0E2FC0C220921944801F068FD4FF4DC
:10088000806000906946914801F0D6FC0C220A2154
:100890008E4801F05CFD4FF48050009069468B4813
:1008A00001F0CAFC0C221146884801F050FD1020CE
:1008B00000906946834801F0BFFC0C220421814866
:1008C00001F045FD01208DF804000002009069460A
:1008D0007F4801F0B1FC4FF40070009069467C48FD
:1008E00001F0AAFC1020009069467A4801F0A4FCAF
:1008F000202000906946774801F09EFC402000903F
:100900006946744801F098FC1CBD00B597B0012100
:10091000084601F067FF03200190002002900620A6
:100920000390012004900590002006900790089005
:1009300009900A9010200B9000200C900D900E90C2
:100940000F901090119012901390149001A8159090
:10095000169008A801F021F90121002001F0A8F962
:100960000220089008A801F018F90121022001F0E6
:100970009FF90420089008A801F00FF90121042034
:1009800001F096F90620089008A801F006F9012167
:10099000062001F08DF917B000BD08B506208DF8CE
:1009A000000000208DF801008DF8020001208DF874
:1009B0000300684601F06BF807208DF800006846D8
:1009C00001F065F808208DF80000684601F05FF836
:1009D00009208DF80000684601F059F808BD1FB5E0
:1009E0000121062001F0C6FE0121880301F01CFF51
:1009F000FFF7D3FF0120029000208DF80C000120AA
:100A00008DF80F0002A9324801F016FC00210120E8
:100A100004F0DFF80120009000208DF804000C2085
:100A20008DF8050001208DF80600684604F018F9DD
:100A30000220029002A9264801F0FEFB012108468F
:100A400004F0C7F802200090684604F009F9042079
:100A5000029002A9204801F0EFFB0221084604F0B1
:100A6000B8F804200090684604F0FAF808200290D4
:100A700002A9194801F0E0FB0321022004F0A9F8C3
:100A800008200090684604F0EBF81FBD1CB501215A
:100A9000084601F06FFE022200210E4801F057FCCB
:100AA0000120009002208DF8040000208DF806003F
:100AB0008DF8070003208DF805006946054801F010
:100AC000BBFB1CBD000C024000100240001802409D
:100AD00000040240000002400008024000B589B056
:100AE0000121082001F08FFE40F28F600790002066
:100AF000ADF81800ADF82000ADF81A0006A9FE48C0
:100B000002F039F86020ADF804000120ADF80600CD
:100B1000042003900220ADF8100001A9F64802F06D
:100B2000BFF80821F44802F048FA0121F24802F027
:100B30008DF800221146F04802F014FB0121EE4826
:100B400002F0A2F809B000BD10B5FFF79FFFFFF754
:100B5000C5FF00221146E84802F004FB10BD70B545
:100B60000446CCB1E5488068E549B1FBF0F0451E8C
:100B70000021E14802F088F82946DF4802F046F8F3
:100B80000421DD4802F0E5F90021DB4802F03CF8E1
:100B90000121D94802F078F801220021D64802F05C
:100BA000E1FA70BD10B500221146D34802F0DAFA1E
:100BB00010BD10B50446D148807920B94FF480703B
:100BC000D049088004E04FF48070CE49891C088029
:100BD000CA48C079072835D2DFE800F034040C1485
:100BE0001C242C004020C849488320204883102022
:100BF00008832FE04020C449488320200883102028
:100C0000488327E04020C0494883202008831020E3
:100C100008831FE04020BC4908832020488310201F
:100C2000488317E04020B8490883202048831020DB
:100C300008830FE04020B449088320200883102057
:100C4000488307E04020B049488320204883102093
:100C5000488300BF00BF2046FFF781FF0120AB495A
:100C60000870AB4908800220088004200880082012
:100C7000088010BD10B5FFF71DFDFFF746FEFFF71A
:100C8000AEFEFFF761FF0F2004F05BF80020FFF7D6
:100C900090FF10BD10B5FFF785FF00209B4908703D
:100CA00001209B49891E08800220088004200880BA
:100CB0000820088010BD10B59648007A00F00F009B
:100CC0000F282AD10020934908720846407A401C18
:100CD00048720846407A0A281FDB002048724FF409
:100CE00020728D498D480AF0EAFE012089498872F8
:100CF0004FF42072486889490AF0E1FE854840684F
:100D000000F5207083494860084641688448814264
:100D100003D3A0F5C8507F49486010BD10B501212C
:100D20007848183801F0EAFA00284FD101207849B4
:100D300008804FF0C04000887649497A764A02EB35
:100D4000811108804FF0C04000887249497A02EB57
:100D5000811148804FF0C04000886E49497A02EB0B
:100D6000811188804FF0C04000886A49497A02EBBF
:100D70008111C8804FF0C04000886649497A02EB73
:100D8000811108814FF0C04000886249497A02EB26
:100D9000811148814FF0C04000885E49497A02EBDA
:100DA000811188814FF0C04000885A49497A02EB8E
:100DB0008111C8815748007A40F0010055490872F6
:100DC000FFF779FF01205249891E0880012003F0B6
:100DD000B8FF10BD10B502214A48183801F08EFA4C
:100DE00000284FD102204A4908804FF0C8400088AF
:100DF0004849497A484A02EB811108824FF0C840BD
:100E000000884449497A02EB811148824FF0C8407A
:100E100000884049497A02EB811188824FF0C8402E
:100E200000883C49497A02EB8111C8824FF0C840E2
:100E300000883849497A02EB811108834FF0C84095
:100E400000883449497A02EB811148834FF0C84049
:100E500000883049497A02EB811188834FF0C840FD
:100E600000882C49497A02EB8111C8832948007A0D
:100E700040F0020027490872FFF71DFF02202449B5
:100E8000891E0880022003F05CFF10BD10B504210C
:100E9000244801F033FA002866D104201C49088058
:100EA000880600881B49497A1B4A02EB8111088495
:100EB0004FF0D04000881749497A02EB81114884ED
:100EC0004FF0D04000881349497A02EB81118884A1
:100ED0004FF0D04000880F49497A02EB8111C88455
:100EE0004FF0D04000880B49497A02EB8111088508
:100EF0004FF0D040008817E0000C00402402002092
:100F000000BD01051804024000000240140000204A
:100F10001A140240C8040020D41D002048020020FA
:100F2000D41D0020000802403F49497A02EB81119C
:100F300048854FF0D04000883B49497A02EB811147
:100F400088854FF0D04000883749497A02EB8111FB
:100F5000C8853548007A40F0040033490872FFF72D
:100F6000AAFE042031490880042003F0EAFE10BDE7
:100F700010B508212E4801F0C1F900284FD10820F2
:100F80002A49891C08804FF0D84000882649497AB0
:100F9000284A02EB811108864FF0D8400088224988
:100FA000497A02EB811148864FF0D84000881E49EB
:100FB000497A02EB811188864FF0D84000881A499F
:100FC000497A02EB8111C8864FF0D8400088164953
:100FD000497A02EB811108874FF0D8400088124906
:100FE000497A02EB811148874FF0D84000880E49BA
:100FF000497A02EB811188874FF0D84000880A496E
:10100000497A02EB8111C8870748007A40F008004E
:1010100005490872FFF74FFE0820044908800820A0
:1010200003F08FFE10BD0000C80400201814024019
:1010300000080240D41D00201CB50121262001F02B
:1010400099FB01208DF8040000208DF80600012096
:101050008DF8070002208DF80500012000906946F8
:10106000254801F0E9F8022000906946224801F085
:10107000E3F80420009069461F4801F0DDF80820DD
:10108000009069461C4801F0D7F81020009069468E
:10109000194801F0D1F8802000906946174801F006
:1010A000CBF800208DF804008DF806004FF4804046
:1010B00000906946124801F0BFF84FF400400090DC
:1010C00069460F4801F0B8F84FF480600090694617
:1010D0000B4801F0B1F801200749183108800220BF
:1010E00008800420088008200880102008808020C4
:1010F00002491A3108801CBD001402400008024059
:10110000000402400EB50121084601F07CFB4FF0BF
:10111000FF3001902920ADF800000020ADF8080054
:10112000ADF8020069464FF0804001F024FD012136
:10113000880701F0A9FD0EBD10B54FF0804001F009
:1011400067FD10BD10B5FFF7F7FF4FF47A71B0FBE4
:10115000F1F010BD70B50446FFF7EEFF054600BF85
:10116000FFF7EAFF29198842FAD370BD70B504462B
:10117000FFF7E2FF054600BFFFF7DEFF04EB440187
:10118000C1EBC41105EBC1018842F5D370BD00006D
:1011900000B587B00121080301F046FB0121422080
:1011A00001F0E8FA00208DF81A008DF81B000220EB
:1011B0008DF819008DF818000820059005A9FA4847
:1011C00001F03AF805220321F74801F0C0F8202089
:1011D000059005A9F44801F02FF805221146F248C0
:1011E00001F0B5F81020059005A9EF4801F024F8AA
:1011F00005220421EC4801F0AAF84FF400400590C4
:1012000001208DF818008DF81B0005A9E74801F0B2
:1012100013F84FF40040E549183108800020ADF87C
:1012200000004FF48270ADF802000020ADF8040019
:101230000220ADF806000120ADF808004002ADF82C
:101240000A000020ADF80C00ADF80E000720ADF844
:1012500010006946D64803F0C9FD0121D44803F0C7
:10126000BFFE07B000BD70B504460D4600BF0221A9
:10127000204603F07FFF0028F9D0A58100BF01219F
:10128000204603F077FF0028F9D0A089C0B270BDD6
:1012900010B5044600BF0221204603F06BFF002872
:1012A000F9D0FF20A08100BF0121204603F062FF9A
:1012B0000028F9D0A089C0B210BD70B50446002541
:1012C0004FF40040B9491A31088005212046FFF744
:1012D000CAFF2046FFF7DCFF05464FF40040B34944
:1012E00018310880284670BD70B506460C460025AA
:1012F0000BE03046FFF7E1FF00F0010000B906E027
:101300006D1C4FF47A70FFF725FFA542F1D300BFA3
:1013100070BD10B504464FF40040A4491A3108804E
:1013200006212046FFF79FFF4FF400409F491831E8
:10133000088010BD10B504464FF400409B491A3197
:10134000088004212046FFF78EFF4FF400409749A4
:101350001831088010BD70B5054600244FF40040D8
:1013600092491A31088090212846FFF77CFF00211E
:101370002846FFF778FF00212846FFF774FF002179
:101380002846FFF770FF2846FFF782FF44EA002453
:101390002846FFF77DFF04434FF40040834918318E
:1013A0000880204670BD10B500248148FFF7D3FFA8
:1013B00004464EF61470844201D1102010BD4EF642
:1013C0001570844201D12020F8E74EF61670844251
:1013D00001D12020F2E74EF61770844201D180201F
:1013E000ECE74EF61870844202D14FF48070E5E7C6
:1013F0004FF0FF30E2E72DE9F04180460E461446FB
:101400001F464046FFF785FF4FF4004067491A31F9
:10141000088002214046FFF726FFC4F307414046FB
:10142000FFF721FFC4F307214046FFF71CFFE1B29D
:101430004046FFF718FF002505E0715D4046FFF7C5
:1014400012FF681C85B2BD42F7DB4FF400405749DC
:101450001831088014214046FFF746FF4046FFF749
:1014600069FFBDE8F0812DE9F04180460F46164640
:101470001C46F0B2C0F58075AC4200DC254613E096
:101480002B46324639464046FFF7B5FFAC4200D105
:101490000BE02F442E44601B84B2B4F5807F02DD44
:1014A0004FF4807500E02546EAE700BFBDE8F08113
:1014B00070B506460D462C033046FFF72AFF0A2179
:1014C0003046FFF711FF4FF4004038491A310880C9
:1014D00020213046FFF7C7FEC4F307413046FFF72F
:1014E000C2FEC4F307213046FFF7BDFEE1B230462D
:1014F000FFF7B9FE4FF400402C4918310880C8218D
:101500003046FFF7F1FE3046FFF714FF70BD10B50F
:10151000FFF73EFEFFF747FF10BD2DE9F041804683
:101520000E4614461F464FF4004020491A310880E9
:1015300003214046FFF797FEC4F307414046FFF7FB
:1015400092FEC4F307214046FFF78DFEE1B240460C
:10155000FFF789FE002505E04046FFF799FE70552C
:10156000681C85B2BD42F7DB4FF400400F491831CB
:101570000880BDE8F0812DE9F05F83468A46164673
:101580001D46370BC6F30B09C9F58054A54200DC94
:101590002C464BE03A034FF4805306495846FFF778
:1015A000BCFF4FF0000812E00004024000180240A7
:1015B000003001405420002009EB08002D49085C50
:1015C000FF2800D005E008F101001FFA80F8A045CF
:1015D000F2DB00BFA04512DA39465846FFF768FF34
:1015E000244901EB0900224651460AF068FA3A0301
:1015F0004FF480531F495846FFF735FF05E0234657
:10160000324651465846FFF72EFFA54200D10EE064
:101610007F1C4FF00009A2442644281B85B2B5F573
:10162000805F02DD4FF4805400E02C46B2E700BF3B
:10163000BDE8F09F10B504462046FFF76AFE0A2178
:101640002046FFF751FE4FF400400B490880C721A8
:101650002046FFF708FE4FF400400749891E088026
:1016600047F230512046FFF73FFE2046FFF762FE6B
:1016700010BD0000542000201A18024010B5B0B070
:1016800001214FF0606001F075F802F051FA03F0AB
:10169000A6F800BF03F0B4F80128FBD001A802F0BF
:1016A00052FA01200190002008904FF400700B9036
:1016B00000200C900F90129014901590169021908D
:1016C0004FF0007022900011249000202690279067
:1016D00004202990C0052A9040122B9080012C9064
:1016E00040122D9040002F90002101A802F0E5FA51
:1016F000C4B2012C03D10121C64803F098F820465A
:1017000030B010BD08B53D208DF8000000208DF8E8
:10171000010001208DF802008DF80300684600F0FA
:10172000B6F908BD1CB5002401210F2001F022F8F4
:101730000121880301F078F8012003F06BFA002002
:101740008DF806008DF8070003208DF805000220B3
:101750008DF80400042000906946AF4800F06CFD4D
:101760000B220221AC4800F0F2FD022000906946F5
:10177000AA4800F061FD0B220121A84800F0E7FD16
:10178000022000906946A44800F056FD0B2201217A
:10179000A14800F0DCFD8020009069469E4800F0E2
:1017A0004BFD0B2207219C4800F0D1FD102000903A
:1017B00069469A4800F040FD0B220421974800F04A
:1017C000C6FD202000906946944800F035FD0B22AC
:1017D0000521924800F0BBFD4FF40060009069467F
:1017E0008F4800F029FD0B2211468D4800F0AFFD17
:1017F0004FF4805000906946894800F01DFD0B228F
:101800000C21874800F0A3FD4FF40050009069467A
:10181000834800F011FD0B220D21814800F097FD57
:1018200001208DF804000820009069467D4800F0F2
:1018300003FD08207B491A3108803220FFF796FC0F
:101840000820784918310880FFF75CFFFFF716FF82
:1018500004460CB901201CBD0020FCE710B51F2177
:10186000002002F0F9F9C0F38204204610BD10B543
:1018700001E004F01CFE6C48006802F07EFF0028C6
:10188000F7D1402002F0EAFF4FF4803002F0E6FF8B
:1018900010BD1EB500210022009201920292624A00
:1018A0001268126802F0004282B1002200925F4A80
:1018B000526902F0800222B180225C4B5A61002200
:1018C0009A609DE81C0080E81C001EBD564A126804
:1018D000126802F40042B2B9534A1268126802F464
:1018E000807282B1504A1268126802F4007252B1DA
:1018F0004D4A12681268C2F30D42111F4A4A12681B
:101900009268019200E000210091474A1268029219
:10191000454A1268D268444B1A609DE81C0080E872
:101920001C0000BFD1E7014641480068006800F094
:10193000004008B100207047C1F30C003C4A126817
:1019400050603B480068006840F04050384A1268D8
:10195000106037480068006840F00040344A126860
:1019600010603248406900F0040020B104202F4A82
:101970005061002050602E480068C0682C4A1060FA
:101980000120D8E72A4800688068704710B52948C8
:101990000168002003F093FD27480168002003F050
:1019A0008EFD26480168002003F089FD2448016867
:1019B000002003F084FD10BD10B5A021002003F02D
:1019C0008EFD1C490860A021002003F088FD1A4903
:1019D000086041F6C451002003F081FD17490860FA
:1019E00041F6C451002003F07AFD15490860114802
:1019F000006840B11048006828B11048006810B174
:101A00000846006818B9FFF7C1FF012010BD00208B
:101A1000FCE7000040000100000002400008024016
:101A200000040240000C02403C00002000900240F4
:101A300038000020180000201C000020200000209A
:101A4000240000200948804709480047FEE7FEE7D8
:101A5000FEE7FEE7FEE7FEE7FEE7FEE7FEE7FEE75E
:101A600004480549054A064B7047000081050008F7
:101A700089010008F8B30120F8B90120F8B5012068
:101A8000F8B5012032490143324A1160704770B500
:101A9000002100230F22C4781CB32E4C246804F4C8
:101AA000E064C4F5E064C4F30721C1F10404E3B2C7
:101AB0000A4144789C40E1B28478144021430C07E9
:101AC000210E254C05786155047804F01F0501248A
:101AD000AC4005786D11AD0005F1E025C5F8004179
:101AE00009E0047804F01F050124AC401B4D067882
:101AF000761145F8264070BD194A0A400243154B3D
:101B00001B1F1A60704739B1124A121D1268024336
:101B1000104B1B1D1A6006E00E4A121D126882430C
:101B20000C4B1B1D1A607047042808D14FF0E021B0
:101B3000096941F004014FF0E022116107E04FF024
:101B4000E021096921F004014FF0E02211617047A2
:101B50000000FA050CED00E000E400E080E100E0A8
:101B600080FFFF1F30B943F2DB028100A1F1C041C9
:101B70000A6005E043F2D2028100A1F1C0410A608F
:101B80006FF07042411C8900A1F1C0410A608100E0
:101B9000A1F1C041C1F804217047D0E901121143FD
:101BA000C2681143026911434269114382691143BA
:101BB000C2691143026A1143426A1143826A1143A6
:101BC000C26A1143026B114302689200A2F1C04243
:101BD0001160816808290BD101688900A1F1C04119
:101BE000096841F0400201688900A1F1C0410A6022
:101BF000416B0968426B526841EA0211426B92687C
:101C000041EA0221426B928941EA0241426B128A07
:101C100041EA0251426B127D41EA0261426B9269D4
:101C200011430268521C9200A2F1C0421160C16AC5
:101C3000B1F5804F1BD1816B0968826B526841EA14
:101C40000211826B926841EA0221826B128A41EA98
:101C50000251826B127D41EA0261826B92691143EB
:101C600002689200A2F1C042C2F8041107E06FF0CE
:101C7000704201688900A1F1C041C1F80421704798
:101C8000002101600221416000218160C160016189
:101C900041618161C16101624FF48051416249003B
:101CA00081620021C1620163F84941638163704729
:101CB00051B18200A2F1C042126842F001038200D9
:101CC000A2F1C042136009E08200A2F1C042126892
:101CD000EF4B1A408300A3F1C0431A6070471028ED
:101CE0000AD118214FF020421166402151664FF071
:101CF000FC319166D16610E01821E64A116040215E
:101D00004FF02042C2F884104FF0FC31E14A083213
:101D100011604FF02042C2F88C10704730B500219E
:101D200000220023446844F0080485682C43C568F9
:101D30002C4305692C43456944EA4524856944EAF6
:101D40004531C4692468C5696D6844EA0524C569DC
:101D50002D8944EA0544C5692D7B44EA0562046A7D
:101D60002468056A6D6844EA0524056A2D8944EAF9
:101D70000544056A2D7B44EA05630468102C05D1EF
:101D80004FF020442166A266E36608E0C14C216062
:101D90004FF02044C4F88820BE4C0C34236030BD82
:101DA00010210160002141608160C16001614161D9
:101DB0008161FC21C2691160C2695160C269916090
:101DC000C269D160026A1160026A5160026A916060
:101DD000026AD160704799B1102808D14FF02042B3
:101DE000126E42F004024FF020431A661DE0A94A29
:101DF000126842F004024FF02043C3F8802014E040
:101E0000102809D14FF02042126EA14BDB1E1A4060
:101E10004FF020431A6608E09E4A12689C4BDB1E76
:101E20001A404FF02043C3F88020704799B1102822
:101E300008D14FF02042126E42F040024FF0204392
:101E40001A661DE0934A126842F040024FF02043A8
:101E5000C3F8802014E0102809D14FF02042126E00
:101E60008B4B3F3B1A404FF020431A6608E0894AEB
:101E70001268874B3F3B1A404FF02043C3F8802045
:101E8000704701460020102903D14FF02042506FC7
:101E900002E0804A14321068704718207D492031D2
:101EA000086000200906C1F8A4004FF0FC30794911
:101EB00028310860091D0860091D08607047016825
:101EC00041F01001426841EA4221826841EA423110
:101ED000704A20321160C1680968C268526841EADC
:101EE0000221C268128941EA0241C268127B41EABA
:101EF0000261684A28321160016909680269526802
:101F000041EA02210269128941EA02410269127B17
:101F100041EA02615F4A2C321160416909684269F5
:101F2000526841EA02214269128941EA024142694A
:101F3000127B41EA02614FF02042C2F8B0107047B4
:101F40000021016041608160FC21C2681160C268AB
:101F50005160C2689160C268D16002691160026913
:101F60005160026991600269D16042691160426901
:101F70005160426991604269D160704748B14549FA
:101F80002031096841F004014FF02042C2F8A0104E
:101F900009E04049203109683D4AD21E11404FF006
:101FA0002042C2F8A010704710B5F2B1102807D136
:101FB0004FF020435B6E0B434FF02044636632E0EA
:101FC000B0F5807F08D1334B1B1D1B680B434FF0CE
:101FD0002044C4F8843026E02E4B24331B680B4386
:101FE0004FF02044C4F8A4301DE0102807D14FF072
:101FF00020435B6E8B434FF02044636613E0B0F5E3
:10200000807F08D1234B1B1D1B688B434FF020445E
:10201000C4F8843007E01F4B24331B688B434FF018
:102020002044C4F8A43010BD10B50246002000239F
:10203000102A03D14FF02044636E09E0B2F5807F8F
:1020400003D1144C241D236802E0124C243423686D
:1020500003EA01040CB1012000E0002010BD1028AB
:1020600007D14FF02042526E8A434FF020435A6608
:1020700019E0B0F5807F0FD1064A121D12688A431D
:102080004FF02043C3F884200DE00000FCBD0008A1
:10209000FEFF0F00800000A0234A12688A434FF021
:1020A0002043C3F8A420704770B5024600200023E7
:1020B00000240025102A03D14FF02046736E08E05B
:1020C000B2F5807F03D1184E203E336801E0164EF2
:1020D000336803EA010403EAD10514B10DB101200C
:1020E00000E0002070BD102808D14FF02042526E51
:1020F00022EAD1024FF020435A6614E0B0F5807F07
:1021000009D1094A203A126822EAD1024FF020434D
:10211000C3F8842007E0044A126822EAD1024FF093
:102120002043C3F8A4207047A40000A010B50446C3
:102130009848844208D10121084600F086FB00211E
:10214000012000F082FB76E09348844208D101210F
:10215000022000F07AFB0021022000F076FB6AE00A
:102160008E48844208D10121042000F06EFB00213A
:10217000042000F06AFB5EE08948844208D1012116
:10218000082000F062FB0021082000F05EFB52E016
:102190008448844208D10121102000F056FB002120
:1021A000102000F052FB46E07F48844208D1012114
:1021B000202000F04AFB0021202000F046FB3AE0FE
:1021C0007A48844208D10121402000F03EFB0021E2
:1021D000402000F03AFB2EE07548844208D10121EE
:1021E000802000F032FB0021802000F02EFB22E056
:1021F0007048844208D10121801500F026FB00219F
:10220000A01500F022FB16E06B48844208D10121A2
:10221000401500F01AFB0021601500F016FB0AE0E3
:102220006648844207D10121001500F00EFB002111
:10223000201500F00AFB10BDF0B50A46002100236E
:10224000002400BF3DE0012505FA01F3156805EA09
:1022500003049C4234D105684F000326BE40B543B9
:10226000056015794E00B54006683543056015795F
:10227000012D02D01579022D16D185684F00032655
:10228000BE40B543856055794E00B54086683543FC
:102290008560456801268E40B5434560456896795E
:1022A0008E40B6B235434560C5684F000326BE4038
:1022B000B543C560D5794E00B540C6683543C560A5
:1022C000491C1029BFD3F0BD4FF6FF7101600021FA
:1022D000017141718171C171704708B54FF480324D
:1022E0000092009A0A430092009AC261C161009A6A
:1022F000C261C2690092C269009208BD0246002014
:1023000013690B400BB1012000E00020704701462B
:10231000086980B270470246002053690B400BB138
:10232000012000E0002070470146486980B27047F4
:1023300001837047418370470AB1018300E0418304
:1023400070474161704742694A4042617047F0B549
:10235000002300244D07ED0E02FA05F3CE1000F124
:10236000200555F826504E07F70E0F26BE40B54300
:10237000CF1000F1200646F82750CE1000F12005BE
:1023800055F8265045EA0304CE1000F1200545F823
:102390002640F0BD00000240000402400008024058
:1023A000000C0240001002400014024000180240DD
:1023B000001C02400020024000240240002802408D
:1023C000F948006840F00100F74908600020F6492C
:1023D00008310860F4480068F4490840F249086090
:1023E000F348091D0860F348EF4984310860F0485C
:1023F0001038091D0860EC48006820F48020EA4984
:1024000008600020E8490C310860E7498C31086019
:1024100070470021E44A921C117011460870704701
:1024200010B501460022002300204A11012A02D1E2
:10243000DD4C236808E0022A03D1DB4C70342368AA
:1024400002E0D94C7434236801F01F020124944047
:102450001C400CB1012000E0002010BD38B5002068
:1024600000900024002500BF3120FFF7D9FF05466A
:102470000098401C00900098B0F5A04F01D0002DAE
:10248000F2D03120FFF7CCFF08B1012400E0002496
:10249000204638BD01460020C34A106820F0F800ED
:1024A00040EAC10010607047C349086070470021CE
:1024B000BD4A703211701170012802D004280AD16F
:1024C00004E00121B84A7032117005E00521B64AD6
:1024D0007032117000E000BF00BF7047B74908605C
:1024E000704770B5049C41EA82150126C6EB53067D
:1024F00045EA0645054345EA0465AB4E361D3560A1
:1025000070BDAD4908667047820142EA0172A64B70
:1025100084331A607047A8498866704710B58301F4
:1025200043EA016343EA02739F4C8834236010BD81
:10253000A14908677047A049C86470470246002057
:10254000994B0833186820F0EC6042EA0103184305
:10255000954B08331860704702460020924B0833B1
:10256000186820F0784042EA010318438E4B083384
:1025700018607047014600208B4A0832106820F02E
:10258000030008431060704787480830006800F077
:102590000C00704701460020834A0832106820F082
:1025A000F000084310607047014600207E4A083260
:1025B000106820F4E0500843106070470146002086
:1025C000794A0832106820F4604040EAC100106087
:1025D0007047F0B5002100220024022500260223C6
:1025E000714F08373F6807F00C0121B1042905D06D
:1025F000082937D105E0724F076036E0714F076058
:1026000033E0694F3F1D3F68C7F38056664F3F1D5B
:102610003F6807F03F036EB16A4FB7FBF3F7DFF88F
:1026200088C10CF1040CDCF800C0CCF3881C07FB5B
:102630000CF40CE0624FB7FBF3F7DFF86CC10CF160
:10264000040CDCF800C0CCF3881C07FB0CF4564FDC
:102650003F1D3F68C7F301477F1C7D00B4FBF5F7C2
:10266000076002E0564F076000BF00BF4E4F0837BB
:102670003F6807F0F0010909534F7A5C0768D740BB
:102680004760494F08373F6807F4E051890A4E4FC9
:102690007A5C4768D7408760434F08373F6807F444
:1026A0006041490B484F7A5C4768D740C760F0BD2E
:1026B000002100F44072B2F5407F0AD13A4A083254
:1026C000116821F4F811414A02401143364A083298
:1026D0001160354A70321268C0F30B031A43324B53
:1026E00070331A6070473549443908607047334980
:1026F000403908607047364908607047014600203D
:10270000294A8C32106820F01F004A1E1043264AC6
:102710008C321060704701460020234A8C321068CA
:1027200020F4F8504A1E40EA02201F4A8C32106002
:102730007047014600201C4A8C32106820F440107B
:1027400008431060704701460020174A8C32106819
:1027500020F4400008431060704701460020124AF0
:102760008C32106820F440300843106070471949DB
:102770000860704739B10C4A3032126802430A4B84
:1027800030331A6006E0084A303212688243064B42
:1027900030331A607047F9B1034A34321268024389
:1027A000014B34331A601CE000380240FFFFF6EAA8
:1027B000103000240030002000004742800E4742C5
:1027C0000024F40000127A0028000020FFFCFF0F14
:1027D0005C014742E01147428F4A126882438E4BA8
:1027E0001A60704739B18C4A121D126802438A4B35
:1027F0001B1D1A6006E0884A121D12688243864B30
:102800001B1D1A60704739B1834A0C3212680243AB
:10281000814B0C331A6006E07F4A0C321268824307
:102820007D4B0C331A60704739B17B4A1032126805
:102830000243794B10331A6006E0774A103212686F
:102840008243754B10331A60704739B1724A243A8B
:1028500012680243704B243B1A6006E06E4A243A29
:10286000126882436C4B243B1A60704739B16A4A44
:10287000203A12680243684B203B1A6006E0664A21
:10288000203A12688243644B203B1A60704739B18A
:10289000614A1C3A126802435F4B1C3B1A6006E017
:1028A0005D4A1C3A126882435B4B1C3B1A607047BE
:1028B00039B1594A143A12680243574B143B1A6013
:1028C00006E0554A143A12688243534B143B1A608F
:1028D000704739B1504A103A126802434E4B103BD0
:1028E0001A6006E04C4A103A126882434A4B103B89
:1028F0001A60704739B1484A1C3212680243464B8D
:102900001C331A6006E0444A1C3212688243424B70
:102910001C331A60704739B13F4A203212680243B3
:102920003D4B20331A6006E03B4A20321268824356
:10293000394B20331A60704739B1374A2432126854
:102940000243354B24331A6006E0334A24321268BE
:102950008243314B24331A60704739B12E4A2C32EE
:10296000126802432C4B2C331A6006E02A4A2C32A0
:1029700012688243284B2C331A60704739B1264ABB
:10298000303212680243244B30331A6006E0224A88
:10299000303212688243204B30331A60704701286E
:1029A00008D11D493C31096841F008011A4A3C32FE
:1029B000116007E018493C31096821F00801164A06
:1029C0003C321160704739B1134A273A12780243FA
:1029D000114B273B1A7006E00F4A273A12788243C0
:1029E0000D4B273B1A7070470B484030006840F091
:1029F0008070094940310860704701460020064A4E
:102A0000283A12680A400AB1012000E0002070470D
:102A100001492639087070473438024010B5044621
:102A2000FE48844208D101210846FFF752FF0021E9
:102A30000120FFF74EFF9DE0B4F1804F08D1012146
:102A40000846FFF735FF00210120FFF731FF91E035
:102A5000F348844208D101210220FFF729FF002119
:102A60000220FFF725FF85E0EE48844208D10121CE
:102A70000420FFF71DFF00210420FFF719FF79E074
:102A8000E948844208D101210820FFF711FF002105
:102A90000820FFF70DFF6DE0E448844208D10121D2
:102AA0001020FFF705FF00211020FFF701FF61E074
:102AB000DF48844208D101212020FFF7F9FE0021E0
:102AC0002020FFF7F5FE55E0DA48844208D10121C5
:102AD0000220FFF7FEFE00210220FFF7FAFE49E088
:102AE000D548844209D101210804FFF7F2FE0021F4
:102AF0004FF48030FFF7EDFE3CE0D048844209D12E
:102B000001214804FFF7E5FE00214FF40030FFF7F4
:102B1000E0FE2FE0CA48844209D101218804FFF772
:102B2000D8FE00214FF48020FFF7D3FE22E0C548F5
:102B3000844208D101214020FFF7BAFE0021402045
:102B4000FFF7B6FE16E0C048844208D1012180207C
:102B5000FFF7AEFE00218020FFF7AAFE0AE0BB4887
:102B6000844207D101218015FFF7A2FE0021A015A4
:102B7000FFF79EFE10BD00220288A84B98420ED09F
:102B8000AC4B98420BD0B0F1804F08D0A44B984288
:102B900005D0A44B984202D0A34B984204D14FF6E3
:102BA0008F731A404B881A43A04B984207D0A04B12
:102BB000984204D04FF6FF431A400B891A43028013
:102BC0004B68C3620B880385944B984202D0994BA3
:102BD000984201D18B7A03860123838270474FF09C
:102BE000FF31416000210180018141808172704785
:102BF0000185828270470A46002101884FF68F7353
:102C0000194011430180704741627047C1627047AB
:102C10000146486A70470146088D704721B1028815
:102C200042F00202028004E002884FF6FD731A406F
:102C30000280704721B1028842F00402028004E061
:102C400002884FF6FB731A400280704721B1028858
:102C500042F08002028004E002884FF67F731A403F
:102C60000280704702884FF6F7731A40028002888C
:102C70000A430280704702884FF6FF431A400280E1
:102C800002880A430280704721B1028842F00102A3
:102C9000028004E002884FF6FE731A4002807047FB
:102CA00070B5002400220023058C4FF6FE763540D7
:102CB0000584028C8388048B4FF68F752C40B51EDB
:102CC0002C400D882C43751E2A408D892A434D883F
:102CD0002A43524DA84202D0564DA84213D14FF676
:102CE000F7752A40CD892A434FF6FB752A408D8817
:102CF0002A434FF6FF652B404FF6FF552B400D8AB8
:102D00002B434D8A2B43838004838D684563028463
:102D100070BD70B5002400220023058C4FF6EF76BD
:102D200035400584028C8388048B48F6FF752C405F
:102D30004FF6FF452C400D884FF6FF7606EA052535
:102D40002C434FF6DF752A408D8906EA05152A4384
:102D50004D8806EA05152A43304DA84202D0354D6C
:102D6000A8421DD14FF67F752A40CD894FF6FF76D8
:102D700006EA05152A434FF6BF752A408D8806EAF4
:102D800005152A434FF6FF352B404FF2FF752B40B8
:102D90000D8A06EA85052B434D8A06EA85052B43F5
:102DA000838004838D688563028470BD70B50024C0
:102DB00000220023058C4FF6FF6635400584028C07
:102DC0008388848B4FF68F752C404FF6FC752C4012
:102DD0000D882C434FF6FF552A408D894FF6FF761C
:102DE00006EA05252A434D8806EA05252A430B4DA8
:102DF000A84202D00F4DA84238D14FF2FF752A40A9
:102E0000CD894FF6FF7606EA05252A434FF6FF35B2
:102E10002A408D8806EA05252A4319E00000014072
:102E20000004004000080040000C0040001000407A
:102E300000140040000401400040014000440140F3
:102E40000048014000180040001C004000200040E5
:102E50004EF6FF752B404DF6FF752B400D8A06EAA6
:102E600005152B434D8A06EA05152B438380848381
:102E70008D68C563028470BD70B5002200230024F4
:102E8000058C4EF6FF7635400584038C8488828B52
:102E900048F6FF752A404FF6FF452A400D884FF649
:102EA000FF7606EA05252A434DF6FF752B408D89EE
:102EB00006EA05352B434D8806EA05352B43FE4DC2
:102EC000A84202D0FD4DA84208D14BF6FF752C4018
:102ED0000D8A4FF6FF7606EA85152C43848082839F
:102EE0008D680564038470BD00210180418081806C
:102EF00081608181C18101824182704770B5034642
:102F0000002000241846183001258D40ACB21D8CDD
:102F1000A5431D8409B108290AD100EB61000568A9
:102F20004FF68F76354005600568154305600FE064
:102F30000D1FC5F34E052844056848F6FF76354059
:102F4000056005684FF6FF7606EA02263543056000
:102F500070BD4163704781637047C163704701640E
:102F600070470A460021018B4FF68F7319401143B9
:102F7000018370470A460021018B48F6FF73194010
:102F80004FF6FF7303EA02231943018370470A4691
:102F90000021818B4FF68F73194011438183704755
:102FA0000A460021818B48F6FF7319404FF6FF73E4
:102FB00003EA02231943818370470A460021018BEB
:102FC0004FF6F77319401143018370470A460021F9
:102FD000018B4FF2FF7319404FF6FF7303EA022390
:102FE0001943018370470A460021818B4FF6F7731E
:102FF00019401143818370470A460021818B4FF2AB
:10300000FF7319404FF6FF7303EA022319438183CC
:1030100070470A460021018B4FF6FB73194011439C
:10302000018370470A460021018B4FF6FF33194098
:103030004FF6FF7303EA02231943018370470A46E0
:103040000021818B4FF6FB73194011438183704738
:103050000A460021818B4FF6FF3319404FF6FF736C
:1030600003EA02231943818370470A460021018B3A
:103070004FF67F7319401143018370470A460021C0
:10308000018BC1F30E014FF6FF7303EA02231943CC
:10309000018370470A460021818B4FF67F731940E8
:1030A0001143818370470A460021818BC1F30E01D1
:1030B0004FF6FF7303EA02231943818370470A46E0
:1030C0000021018C4FF6FD731940114301847047B4
:1030D0000A460021018C4FF6F77319401143018411
:1030E00070470A460021018C4FF6DF7319404FF6F6
:1030F000FF7303EA02131943018470470A46002153
:10310000018C4FF67F7319404FF6FF7303EA0213E9
:103110001943018470470A460021018C4FF6FF5382
:1031200019404FF6FF7303EA0223194301847047E5
:103130000A460021018C4FF2FF7319404FF6FF73CE
:1031400003EA02231943018470470A460021018CD7
:103150004DF6FF7319404FF6FF7303EA023319432C
:103160000184704730B5002301248C40A3B2048C45
:103170009C430484048C02FA01F5ADB22C43048410
:1031800030BD30B5002304248C40A3B2048C9C4392
:103190000484048C02FA01F5ADB22C43048430BDE2
:1031A000828B4FF2FF331A408283828B4FF6FF737C
:1031B00003EA01231A4382837047F0B50C46154693
:1031C000002100220026078C4EF6FF7C07EA0C0740
:1031D0000784818B028C4FF6FF7707EA043640F6AE
:1031E000FF4739404FF6FF7707EA052739434FF687
:1031F000FF7707EA0337394345F6FF773A4046F44D
:1032000080573A4381830284F0BD828B4FF6F3737B
:103210001A408283828B0A4382837047F0B50C4642
:103220001546002100220026078C4FF6FF6C07EAA6
:103230000C070784818B028C4FF6FF7707EA042680
:103240004FF60C7739404FF6FF7707EA03172F4305
:1032500039434FF2FF573A4046F480773A4381832F
:103260000284F0BD028B4FF2FF331A400283028BBF
:103270004FF6FF7303EA01231A4302837047F0B548
:103280000C461546002100220026078C4FF6EF7CE5
:1032900007EA0C070784018B028C4FF6FF7707EAD9
:1032A000041640F6FF4739404FF6FF7707EA033729
:1032B00039434FF6FF7703E000000140000401406E
:1032C00007EA052739434FF65F773A4046F0100783
:1032D0003A4301830284F0BD028B4FF6F3731A4028
:1032E0000283028B0A4302837047F0B50C461546F1
:1032F00000210022068C4FF6FE773E400684018BAB
:10330000028C4FF60C7631407E1C06EA03162E43E3
:1033100031434FF6F576324044F0010632430183E3
:103320000284F0BD70B505460C46208850B923894B
:10333000A28861882846FFF7D8FFE1882846FFF772
:10334000CBFF25E0208804280AD12389A288618840
:103350002846FFF794FFE1882846FFF783FF17E030
:10336000208808280AD12389A28861882846FFF787
:1033700055FFE1882846FFF748FF09E02389A28826
:1033800061882846FFF719FFE1882846FFF708FF04
:1033900070BD002101804180012181800021C18018
:1033A000018170472DE9F04105460C4600260127B2
:1033B000608808B9022600E00026A088012801D113
:1033C000022700E001272088A0B92389A28861880C
:1033D0002846FFF78AFFE1882846FFF77DFF23890B
:1033E0003A4631462846FFF74AFFE1882846FFF76C
:1033F00039FF13E02389A28861882846FFF73FFF41
:10340000E1882846FFF72EFF23893A4631462846B1
:10341000FFF76BFFE1882846FFF75EFFBDE8F0810C
:103420000146486B70470146886B70470146C86B80
:1034300070470146086C70470A884B881A438B888E
:103440001A43CB881A430B891A434B891A438B8939
:103450001A43A0F8442070470021018041808180F8
:10346000C180018141818181704731B1B0F8442030
:1034700042F40042A0F8442005E0B0F84420C2F332
:103480000E02A0F84420704721B1828842F0040265
:10349000828004E082884FF6FB731A408280704776
:1034A00021B1828842F00102828004E082884FF6D6
:1034B000FE731A40828070471AB183890B4383815F
:1034C00002E083898B438381704781827047024683
:1034D0000020138A0B400BB1012000E00020704750
:1034E000CA430282704730B5024600200023002400
:1034F000158A05EA0103958905EA010413B10CB1A7
:10350000012000E0002030BDCA430282704741EA3A
:103510000203A0F8483070471AB183890B438381B6
:1035200002E083898B438381704721B1828842F016
:103530000802828004E082884FF6F7731A40828086
:10354000704701894FF6F8721140018170470A46B1
:10355000002101894FF68F73194011430181704793
:1035600030B504460D4629462046FFF7F0FF208976
:1035700040F00700208130BD2DE9F04104460D46A2
:1035800016461F46602D06D13B4601223146204695
:10359000FFF775FE05E03B46012231462046FFF766
:1035A000A4FE29462046FFF7D2FF208940F00700FD
:1035B0002081BDE8F08130B50C4600210189C9B2F7
:1035C0004FF6FF7505EA032515432543294301817D
:1035D00030BD2DE9F04105460E46174698460024B9
:1035E00043463A4631462846FFF7E5FF2C894FF619
:1035F000F870044044F007044FF68F70044044F024
:1036000070042C81BDE8F081F0B504460D461646E5
:103610001F463B46324629462046FFF7CCFF20890D
:1036200040F480402081F0BD82884FF68F731A40AD
:10363000828082880A438280704702894FF6F8733D
:103640001A40028102890A430281704702894FF6BB
:103650007F731A40028102890A4302817047F0B5E4
:103660000C4615461E460021002200230189028BCC
:10367000038C4FF6F877394021434FF6FC473A4028
:1036800040F201173A434FF6DD773B404FF6FF77A4
:1036900007EA06172F433B43018102830384F0BDF1
:1036A00021B1828842F08002828004E082884FF655
:1036B0007F731A4082807047A0F850107047000056
:1036C00010B50446FA48844208D101211020FFF7C2
:1036D00000F900211020FFF7FCF857E0F54884427C
:1036E00009D101214804FFF7E3F800214FF400302D
:1036F000FFF7DEF84AE0F048844209D1012188044E
:10370000FFF7D6F800214FF48020FFF7D1F83DE015
:10371000EA48844209D10121C804FFF7C9F8002111
:103720004FF40020FFF7C4F830E0E548844209D1A7
:1037300001210805FFF7BCF800214FF48010FFF7C6
:10374000B7F823E0DF48844208D101212020FFF7A9
:10375000C0F800212020FFF7BCF817E0DA488442C7
:1037600009D101218807FFF7A3F800214FF080401D
:10377000FFF79EF80AE0D548844207D101214005B1
:10378000FFF796F800216005FFF792F810BD2DE9CC
:10379000FF4705460E460024A14600BFA046B0895B
:1037A00000B100BF2C8A24F44054F08804432C82DA
:1037B000AC8941F20C608443B08831890843718937
:1037C00008430443AC81AC8A24F44074B0890443B8
:1037D000AC826846FEF7FDFEB548854202D0B94886
:1037E000854202D1DDF80C9001E0DDF80890A8894F
:1037F00000F4004040B109EBC90000EB091031684A
:103800004900B0FBF1F707E009EBC90000EB091034
:1038100031688900B0FBF1F76420B7FBF0F00401D8
:103820002009642101FB1078A88900F4004040B110
:10383000322000EBC800B0FBF1F000F007000443B9
:1038400008E0322000EB08106421B0FBF1F000F03A
:103850000F0004432C81BDE8FF874FF4165101602F
:1038600000218180C18001810C2141810021818161
:10387000704710B502460020108A20F470600B8853
:103880004C8823438C882343CC88234318431082DD
:1038900010BD0021018041808180C180704721B12D
:1038A000828942F40052828104E082894DF6FF73DE
:1038B0001A4082817047028B02F47F420283028B9E
:1038C0000A430283704721B1828942F40042828117
:1038D00003E08289C2F30E028281704721B1828A9D
:1038E00042F40062828204E0828A4FF2FF731A403F
:1038F00082827047C1F3080282807047014688883F
:10390000C0F308007047028A4FF6F0731A40028233
:10391000028A0A430282704721B1828942F0020280
:10392000828104E082894FF6FD731A4082817047DC
:1039300082894FF2FF731A40828182890A43828111
:103940007047028A4FF6DF731A400282028A0A43E6
:103950000282704721B1028A42F48042028204E06E
:10396000028A4BF6FF731A4002827047818941F048
:1039700001018181704721B1828A42F0080282826E
:1039800004E0828A4FF6F7731A4082827047028BF6
:10399000D2B20283028B42EA01220283704721B134
:1039A000828A42F02002828204E0828A4FF6DF732C
:1039B0001A408282704721B1828A42F010028282CC
:1039C00004E0828A4FF6EF731A4082827047828A3F
:1039D0004FF6FB731A408282828A0A4382827047C2
:1039E00021B1828A42F00202828204E0828A4FF68A
:1039F000FD731A40828270471AB1838A0B43838217
:103A000002E0838A8B4383827047F0B5034600242B
:103A100000260025002040F66A17B94200D100BFF9
:103A20001846C1F3421401F01F06012707FA06F5F4
:103A3000012C01D10C3004E0022C01D1103000E047
:103A400014301AB107682F43076002E00768AF43DC
:103A50000760F0BD02460020B1F5007F00D100BF35
:103A600013880B400BB1012000E00020704701F4E7
:103A70000072B2F5007F00D100BFCA4302807047D8
:103A800070B50246002400230025002040F66A1687
:103A9000B14200D100BFC1F3421501F01F0301265E
:103AA00006FA03F3012D13D19689334017E0000085
:103AB000001001400044004000480040004C00401D
:103AC000005000400014014000780040007C00409D
:103AD000022D02D1168A334001E0968A33400C123F
:103AE000012606FA04F41688344013B10CB1012003
:103AF00000E0002070BD10B50022002340F66A14DB
:103B0000A14200D100BF0A1201249440A3B2DC43B9
:103B1000048010BD01B581B0002000900198009094
:103B200002E00098401E009000980028F9D10CBDDA
:103B300010B501214806FEF788FE00214FF0007005
:103B4000FEF783FE10BD012101600021416081600C
:103B5000C16001614FF48041416100218161C16117
:103B60004FF400610162002141628162C162016320
:103B700041638163C16340210164202141640021CC
:103B80008164C164016541658165C165016680210B
:103B9000416600218166C166016741678167C1672F
:103BA0004FF08061C0F880104910C0F884100021E7
:103BB000C0F888104FF40011C0F88C100021C0F834
:103BC0009010C0F89410C0F89810C0F89C10C0F87D
:103BD000A0104FF00071C0F8A4104912C0F8A8104E
:103BE0008901C0F8AC104912C0F8B0100021C0F82B
:103BF000B410C0F8B810704738B503460C46002121
:103C000000200090F748016901F01C014FF4784052
:103C100000EAC32001434FF4F86000EA8410014336
:103C200041F0020141F00101EE484261016100BF33
:103C30000098401C0090EB48016901F0010018B1A8
:103C4000E94D0098A842F3D3E74D0098A84201D16E
:103C5000002038BD0120FCE718B502460B460021C4
:103C600000200090DF48016901F01C014FF478400A
:103C700000EAC22001434FF4F86000EA83100143D8
:103C800021F0020141F00101D648016100BF009816
:103C9000401C0090D348016901F0010018B1D24CDA
:103CA0000098A042F3D3D04C0098A04201D100204C
:103CB00018BDCC48406980B2FAE72DE9F04188B0E0
:103CC00004460F464FF00008002500200790C74E1D
:103CD000029001200190C348056925F01C0503A846
:103CE000FEF777FC049EC248864205D3C14886424F
:103CF00002D245F008051AE0BE48864205D3BB480B
:103D0000864202D245F00C0511E0B848864203D342
:103D1000B948864200D20AE0B748864205D3B74880
:103D2000864202D245F0040501E045F01005AD4899
:103D300005614FF4004200213846FFF75DFF10B9DE
:103D4000002001906AE0AE48FFF7E4FE20680028FA
:103D500050D000BF0298401C029001213846FFF766
:103D60007BFF00F0040018B99F4902988842F1D304
:103D70009D490298884202D1002001904EE0002027
:103D800002904FF4805200213846FFF735FF08B902
:103D90000020019000BF0298401C0290012138468B
:103DA000FFF75AFF00F0200018B98F4902988842A7
:103DB000F1D38D490298884202D1002001902DE074
:103DC000002002901F213846FFF746FF804608F08A
:103DD000100018B14FF40060206201E00020206262
:103DE00008F0040010B10020606116E04FF480403C
:103DF000606112E0206AC0F3CF006169C1F34F0136
:103E000040EA010200213846FFF7F6FE08B900201B
:103E100001906FF07F40FFF77DFE00BF019820B951
:103E20004FF400602062C00060616E48056875480C
:103E30000540D4E901010843E168084321690843CA
:103E400061690843A1690843E1690843216A08439D
:103E5000616A0843A16A0843E16A0843216B084389
:103E6000616B084305435F48056005684FF6FF70C6
:103E7000FFF750FE5B480560D4E90E010843216C52
:103E80000843616C0843A16C0843E16C0843216D51
:103E90000843616D084353494860084645684FF63A
:103EA000FF70FFF737FE4F4845604E49A06D8860B0
:103EB000E06DC860084685694FF641700540B4F86A
:103EC0006010606E40EA0140A16E0843E16E084355
:103ED000216F0843616F0843054342488561856946
:103EE0004FF6FF70FFF716FE3E488561D4E91E01CC
:103EF00008433C49C8610846C5694FF6FF70FFF7A3
:103F000009FE3848C5614048856940480540D4E904
:103F100020010843D4F888100843D4F88C100843D3
:103F2000D4F890100843D4F894100843D4F89810AB
:103F30000843D4F89C100843D4F8A0100843054364
:103F40003148856185694FF6FF70FFF7E3FD2E4824
:103F50008561D4E929010843D4F8AC100843D4F8AA
:103F6000B0100843D4F8B41040EA8100D4F8B81077
:103F7000084340F4000024490860084605684FF6ED
:103F8000FF70FFF7C7FD20480560006840F0800023
:103F90001D490860084605684FF6FF70FFF7BAFD37
:103FA000194805600198012802D108B0BDE8F081E8
:103FB0000020FAE730B11449896941F00201124A40
:103FC000916105E01049896921F002010E4A916171
:103FD0007047E8B10C49896941F400510A4A91617E
:103FE0001CE0000000800240FFFF040000879303F4
:103FF000002D3101C00E160200E1F50580D1F00858
:10400000FFFF0F000F8120FF00900240233FDEF8EA
:10401000FA49896921F40051F84A9161704708B55D
:1040200000200090F548806940F48010F3498861D1
:104030000846806900904FF6FF70FFF76BFDEF496F
:104040000098886108BD38B504460020009034B15E
:10405000EB48006840F00400E949086005E0E848E2
:10406000006820F00400E6490860E5480068009018
:104070004FF6FF70FFF74EFDE1490098086038BD2C
:1040800038B504460020009034B1DD48006840F0A7
:104090000800DB49086005E0D948006820F0080006
:1040A000D7490860D648006800904FF6FF70FFF7C8
:1040B00031FDD3490098086038BD10B50120FFF7E5
:1040C000DFFF0120FFF7BFFFFFF7A9FF0120FFF788
:1040D00080FF0120FFF76EFF10BD10B50020FFF735
:1040E00078FF0020FFF766FF0020FFF7ACFFFFF727
:1040F00096FF0020FFF7C4FF10BD0020C04989696A
:1041000001F0010109B1012000E00020704708B56D
:1041100000200090BA48806940F00100B8498861E9
:104120000846806900904FF6FF70FFF7F3FCB44932
:104130000098886108BD38B504460020009034B16D
:10414000AF48806940F00100AD49886105E0AC48A6
:10415000806920F00100AA498861A948806900901F
:104160004FF6FF70FFF7D6FCA5490098886138BD6F
:1041700001460020A24A926B0A400AB1012000E0E9
:1041800000207047014600209D4A926B0A400AB108
:10419000012000E00020704729B1994AD26B824388
:1041A000974BDA6304E0964AD26B0243944BDA638E
:1041B000704710B50B794C7943EA0422904B0344C5
:1041C0001A64CB781B068C7843EA04434C7843EAA4
:1041D00004230C7843EA0402894B03445A6410BD5B
:1041E0000246874B1344186C030A4B710871844BC9
:1041F0001344586C030ECB70030C8B70030A4B7086
:104200000870704738B504460D460020009045B14F
:104210007B482044006C40F0004079492144086408
:1042200007E077482044006C20F0004074492144A6
:10423000086473482044006C00904FF6FF70FFF74D
:1042400069FC6F4921440098086438BD38B50446BC
:104250000D4600200090082D08D069482044006CCD
:1042600040F0804066492144086407E064482044E7
:10427000006C20F08040624921440864604820447A
:10428000006C00904FF6FF70FFF744FC5C4921443E
:104290000098086438BD38B504460D4600200090EB
:1042A00057482044006C20F07C5055492144086454
:1042B00053482044006C00904FF6FF70FFF72AFC33
:1042C0004F492144009808644D482044006C28431D
:1042D0004B49214408644A482044006C00904FF642
:1042E000FF70FFF717FC464921440098086438BD69
:1042F0001EB500210022009201920292414A1268EA
:104300001268C2F30D42111F00913F4A12681268F1
:1043100002923D4A1268126892680192394A126804
:10432000D268384B1A609DE81C0080E81C001EBD56
:104330000FB50021019102910391009178E000995D
:10434000491C00912F490968096801F40071A1B165
:104350002C490968096801F4807171B92949096813
:10436000294A126811600121274A12689160254983
:104370000968C968234A11605AE022490968096836
:1043800001F4807191B91F490968096801F400714D
:1043900061B91D4909688968491C1B4A1268916006
:1043A00018490968C968174A116041E01549096848
:1043B000154A12685160144909688968491C124AF3
:1043C00012689160104909688968012904D10D4972
:1043D00009680D4A126811600A4909680968C1F341
:1043E0000D41091F019108490968896801290DD902
:1043F000054909680968896802910BE0009002404C
:10440000008002403C00002040000020F74909687D
:1044100089680291F649096809680391F3490968B6
:10442000C968F24A116001A90EC980E80E000FBDEB
:10443000EE490968096801F0004119B90099052998
:10444000FFF47DAF01A90EC980E80E0000BFEEE7C2
:1044500070B50246002300250024E6480068006885
:1044600000F0004008B1002070BDE248016840F251
:10447000F450824208DD92FBF0F392FBF0F600FB71
:10448000162010B15B1C00E00123012B0CD1086841
:1044900040F040500860C2F30C004860086840F0EB
:1044A00000400860C96826E0002422E0086820F087
:1044B000405008601CB9086840F08050086040F225
:1044C000F4504860581EA0420DD1086840F00050DA
:1044D0000860581EC0EBC01000EB4000A2EB800546
:1044E000C5F30C004860086840F000400860C968E7
:1044F000641C9C42DAD3BF480160BF48406900F0A9
:10450000040020B10420BC4E7061002070600120C6
:10451000AAE770B50C4613460021B44D286000BFD1
:1045200018E000EB41124FF00045156044F2F455DD
:104530005560C1EBC11505EB450504EB850595609C
:104540005D1E8D4204D900EB41152035D56000E099
:10455000D060491C9942E4D3A74DE860A74DA44E12
:10456000356070BDA1480068006800F00040E8B9FF
:104570009E480068006800F48070B8B19C480068EC
:104580008068401C9A49096888609948006880687A
:10459000012804D195480068954909680860934846
:1045A0000068934909684860012070478F48006897
:1045B000006800F00040F0B98C480068006800F422
:1045C0000070C0B189480068006800F4807090B93C
:1045D000864800688649096808600020844909689F
:1045E0004860012082490968886080480068C06886
:1045F0007E4908601DE07D480068006800F00040CA
:10460000B8B97A480068006800F4007088B9774843
:104610000068006800F4807058B9754800688068C8
:10462000401C73490968886070480068C0686F4919
:1046300008600020B9E730B50C46134600216D4DE7
:10464000286000BF15E000EB41124FF480151560A3
:10465000C1EBC11505EB450504EB850595605D1EB5
:104660008D4204D900EB41152035D56000E0D060C3
:10467000491C9942E7D3604D286130BD02460020B5
:1046800013680B400BB1012000E000207047014689
:104690000868C0F3C3007047016841F00041016041
:1046A000704721B1026842F08042026003E0026874
:1046B00022F080420260704702680A43026070473D
:1046C00002680A430260704721B1026822F000626A
:1046D000026003E0026842F000620260704721B1AC
:1046E000026842F48012026003E0026822F4801241
:1046F0000260704721B1026822F08062026003E02C
:10470000026842F080620260704710B541EA0244DC
:1047100043682343436010BD0246002013680B40EA
:104720000BB1012000E00020704702460020136911
:104730000B400BB1012000E000207047016841F000
:1047400000410160704701460868C0F30D407047A2
:1047500021B1426822F00042426003E0426842F028
:10476000004242607047024619B15068C0F30C40E5
:1047700070479088C0F30C00FAE700B502460023AA
:10478000106800F0004058B9106800F4004038B9D3
:10479000106800F4807018B11046FFF7D4FF03468C
:1047A000184600BD38B504460020009034B11248C8
:1047B000006840F080001049086005E00E4800687D
:1047C00020F080000C4908600B48006800904FF60C
:1047D000FF70FFF79FF908490098086038BD064848
:1047E000006840F001000449086070473C00002068
:1047F000400000203800002000900240543000208B
:104800000020E849096801F0010109B1012000E038
:104810000020704701460020E24A52690A400AB16E
:10482000012000E000207047DE494861704729B14F
:10483000DC4AD2690243DB4BDA6104E0D94AD2692F
:104840008243D84BDA61704701460020D54A52694D
:104850000A400AB1012000E000207047D1494861B8
:104860007047D048406900F001007047CD4840696A
:1048700000F0400070470020CA49896901F48011A6
:1048800009B1012000E00020704701460020C54A20
:10489000126A0A400AB1012000E000207047C148B6
:1048A000006AC0F34A407047BE48006A80B2704751
:1048B000BC48806C7047BB48C06C7047B948006DFD
:1048C0007047B848406D70470020B649486070474F
:1048D0000020B44988607047B2494862704770B59B
:1048E00006460D46002400213046FFF7B5F9044680
:1048F00015B144F4804402E04BF6FF7004402246B8
:1049000000213046FFF778F908B1012070BD002082
:10491000FCE708B500200090A348C06A40F00040C2
:10492000A149C8620846C06A00904FF6FF70FFF7C1
:10493000F1F89D490098C86208BD38B505460020C9
:104940000090002400BF0EE055F8240096498862CC
:104950000846806A00904FF6FF70FFF7DBF8924937
:1049600000988862641C082CEED338BD38B5044624
:104970000020009034B18C48C06A40F400708A492D
:10498000C86205E08848C06A20F400708649C862A1
:104990008548C06A00904FF6FF70FFF7BBF8824968
:1049A0000098C86238BD014600207F4AD26A0A409A
:1049B0000AB1012000E00020704738B5044600200D
:1049C000009034B17848C06A40F004007649C8626B
:1049D00005E07548C06A20F004007349C862724857
:1049E000C06A00904FF6FF70FFF794F86E49009888
:1049F000C86238BD38B504460020009034B16A481A
:104A0000C06A40F002006849C86205E06648C06AB2
:104A100020F002006449C8626348C06A00904FF603
:104A2000FF70FFF777F860490098C86238BD38B565
:104A300004460020009034B15B48C06A40F0010099
:104A40005949C86205E05848C06A20F0010056493B
:104A5000C8625548C06A00904FF6FF70FFF75AF8D9
:104A600051490098C86238BD5048006840F0300095
:104A70004D49C1F8000170474C48006820F0200003
:104A80004949C1F800010846D0F8000140F0100083
:104A9000C1F80001704738B14449096841F0080184
:104AA000414AC2F8001106E04049096821F00801B6
:104AB0003D4AC2F80011704738B13C49096841F0DD
:104AC0000401394AC2F8001106E03849096821F0AA
:104AD0000401354AC2F80011704738B133490968FA
:104AE00021F00201304AC2F8001106E02F4909689E
:104AF00041F002012C4AC2F8001170472B480068AF
:104B000040F001002849C1F80001704700F08052D0
:104B100092B120F0805039B1244A0C32126882439D
:104B2000214BC3F80C2117E0204A0C3212680243D3
:104B30001D4BC3F80C210FE039B11C4A103212682A
:104B40008243194BC3F8102106E0184A103212684C
:104B50000243154BC3F8102170470146002001F0B5
:104B600080526AB1114A121D12680A4032B10F4ACE
:104B70000C3212680A400AB901200EE000200CE055
:104B80000A4A083212680A4032B1084A0C321268E6
:104B90000A400AB9012000E000207047014602489F
:104BA0000858704700900240008002400081024097
:104BB00010B501218803FDF78CFE00214FF48040E1
:104BC000FDF787FE10BD1C49086070471B4908624D
:104BD000704730B500228B071C0F0F2303FA04F235
:104BE000154B08338C1053F824309343124C08347F
:104BF0008D1044F8253023468C1053F824308C0750
:104C0000240F00FA04F423430B4C08348D1044F8AD
:104C1000253030BD0949DC3108607047084908601B
:104C20007047002004492031096801F4807109B1FE
:104C3000012000E0002070470038014000002742BA
:104C400000042742002041490860091D0860091D31
:104C50000860091D08603E483C49143108607047EF
:104C600000213A498279002A3AD00A46126803683C
:104C70009A430B461A600A1D126803689A430B1D7B
:104C80001A60027911440A6803681A430A602F4ABD
:104C90000832126803689A432C4B08331A601A1DB5
:104CA000126803689A43294B0C331A604279102A20
:104CB0000ED11A1F126803681A43244B08331A6076
:104CC0001A1D126803681A43204B0C331A600DE05A
:104CD0001E49427911440A6803681A430A6005E0D4
:104CE000027911440A6803689A430A6070470021F8
:104CF000016001710C2141710021817170471349DC
:104D0000103109680143114A1032116070470146A1
:104D100000200E4A143212680A400AB1012000E055
:104D2000002070470949143108607047014600208F
:104D3000064A143212680A400AB1012000E000203D
:104D4000704702491431086070470000003C014080
:104D5000FFFF7F0010B50446FB48844208D10121C3
:104D60008014FDF7B6FD0021A014FDF7B2FD3CE074
:104D7000F648844208D101210014FDF799FD002175
:104D80002014FDF795FD30E0F148844208D101215F
:104D9000C013FDF78DFD0021E013FDF789FD24E030
:104DA000EC48844208D101214014FDF792FD002116
:104DB0006014FDF78EFD18E0E748844209D1012117
:104DC0000805FDF786FD00214FF48010FDF781FDF9
:104DD0000BE0E248844208D101214805FDF779FD46
:104DE00000214FF40010FDF774FD10BD10B5002236
:104DF000028802F441520B884C8823438C88234359
:104E0000CC8823430C8923434C8923438C89234337
:104E1000CC8923431A430280838B4FF2FF742340D3
:104E200083830B8A038210BD2DE9F04F00250223F6
:104E300000244FF0010900220026002794469046E6
:104E4000B0F81CA04FF2400B0AEA0B0AA0F81CA015
:104E50004FF0020AA0F820A0858BD1F808A0BAF183
:104E6000020F01D100BF82E0B1F804A0BAF1000F37
:104E700002D14FF0010901E04FF00209DFF8E0A292
:104E8000DAF800A00AF4000ABAF1000F09D0DFF83E
:104E9000D0A2DAF800A02AF4000ADFF8C4B2CBF8F6
:104EA00000A0DFF8BCA20AF17C0ADAF800A0CAF37D
:104EB000881CDFF8ACA20AF17C0ADAF800A0CAF379
:104EC0000278DFF89CA2AAF1040ADAF800A00AF03E
:104ED0003F07DFF88CA2AAF1040ADAF800A00AF46E
:104EE000800ABAF5800F08D1DFF878A2BAFBF7FA8A
:104EF0000AFB0CFABAFBF8F607E0DFF86CA2BAFB83
:104F0000F7FA0AFB0CFABAFBF8F6B1F806A0BAF504
:104F1000007F0ED14FEA162A0AEB8A0A4FEA4A0AA4
:104F2000D1F808B0BAFBFBFA0AF1050A1FFA8AF2B7
:104F30000FE04FEA491AB6FBFAFA0AEB8A0A4FEA7F
:104F40004A0AD1F808B0BAFBFBFA0AF1050A1FFABF
:104F50008AF24FF00A0AB2FBFAF202F00104A2EB65
:104F6000040ACAF34F034FF6FF7A0AEA0424022B1D
:104F700001DBFF2B01DD02230024B1F806A04AEA81
:104F8000040A4AEA030AA0F820A0B1F804A0B1F884
:104F90000CB04AEA0B0AB1F802B04AEA0B0AB1F8BF
:104FA00000B04AEA0B0A4AF4006A4AEA050585831A
:104FB000BDE8F08F0021018041808180C1800181A6
:104FC00041818181C18107210182704700210180D7
:104FD00041808180C18002218160002181817047F0
:104FE00021B1028842F04002028004E002884FF6BC
:104FF000BF731A400280704721B1828B42F48062F5
:10500000828304E0828B4FF6FF331A40828370471D
:1050100002884FF2FF731A40028002880A4302801E
:105020007047B1F5804F04D1028842F4804202807B
:1050300004E002884BF6FF731A40028070474FF677
:10504000FF62914204D0028842F48072028004E040
:1050500002884FF6FF631A400280704721B18288B0
:1050600042F00402828004E082884FF6FB731A400B
:105070008280704721B1828842F01002828004E071
:1050800082884FF6EF731A408280704730B5002255
:105090000023848B4FF240052C4084830224048437
:1050A000828B0C88B4F5007F01D00C8814B94FF4C2
:1050B000807308E00C88B4F5407F03D00C88B4F509
:1050C000807F00D100238C888D892C434D882C4310
:1050D0001C4344F400642243828330BD0146888926
:1050E00070478181704721B1028842F400520280EA
:1050F00004E002884DF6FF731A4002807047018871
:1051000041F480510180704702460020012901D0FE
:10511000108B00E0908A70470146088A70471AB1E8
:1051200083880B43838002E083888B4383807047AE
:1051300030B5002400230C110125A540ABB2AAB163
:1051400085881D43858014E0003001400038004010
:10515000003C004000340140005001400054014038
:105160000838024000127A000024F40085889D432C
:10517000858030BD0246002013890B400BB1012011
:1051800000E000207047CA4302817047F0B5024634
:10519000002000240023002501F00F070126BE4057
:1051A000B4B20B1101269E40B3B2968806EA0305FD
:1051B0001689264016B10DB1012000E00020F0BD97
:1051C00010B5002201F00F040123A3409AB2D3438B
:1051D000038110BD00BF704700BF4E4A128802F025
:1051E0004002002AF9D0C2B24A4B9A80704710B5EB
:1051F00088B0044601210846FDF7BCFA01211020C1
:10520000FDF712FB072209214348FDF7A0F807220A
:105210000A214148FDF79BF84FF4C0600690022038
:105220008DF81C008DF81D0000208DF81E00012057
:105230008DF81F0006A93848FCF7FEFF02940020F5
:10524000ADF80C00ADF80E00ADF81000ADF814008C
:105250000C20ADF8120002A92E48FEF798FA0121A1
:105260002C48FEF71CFB40212A48FEF700FC0122D7
:1052700040F225512748FEF7C8FB25208DF8040091
:1052800003208DF805008DF8060001208DF8070039
:1052900001A8FCF7FCFB08B010BD10B540F2255189
:1052A0001C48FEF7EDFB10B31A48FEF727FBC4B20B
:1052B0001A48008800F40040C8B91848008800F473
:1052C000804060B10A2C03D000201449088020E0FF
:1052D0001248008840F400401049088019E00D2C65
:1052E00006D10E48008840F480400C49088010E048
:1052F0000A480088C0F30D0009490C54074800888B
:10530000401C0649088008460088C72801DD0020A7
:10531000088010BD00100140000002404C00002039
:105320006030002070B503460C4603E014F8015BC2
:1053300003F8015B151EA2F10102F7D170BD30B573
:10534000034601E003F8011B141EA2F10102F9D18A
:1053500030BD10B504467C4951F824104A007B4901
:1053600051F824000021FFF7EAFF794951F8242081
:1053700076490C3951F824000021FFF7E0FF0121A4
:1053800072480C30015510BD10B5014600230022B3
:1053900007E06E4850F8210030F8120000B15B1CA5
:1053A000521C694850F821009042F2D864205843BA
:1053B000654C54F82140B0FBF4F0C0B210BD2DE9AB
:1053C000F04704460F460025A94660480C30005DB2
:1053D00020B95E4814380168204688471FB94FF04D
:1053E000FF30BDE8F0875B4850F82400B7FBF0F0D1
:1053F00086B2584850F82400B7FBF0F100FB11705A
:1054000008B1701C86B2504850F82400451E22E0B6
:105410004E4850F8240030F8150020B909F1010079
:105420001FFA80F901E04FF00009B14512D14FF0A9
:10543000000808E0454850F8240005EB080120F872
:10544000116008F10108B045F4D3424850F8240037
:105450006843C6E76D1E002DDADA4FF0FF30C0E773
:105460002DE9F04104460E4638480C30005D38B94D
:10547000364814380168204688470120BDE8F0818D
:10548000334850F82400B04217D9324850F824006D
:10549000B6FBF0F12D4850F8240030F8112000251B
:1054A00007E00023294850F824004F1920F817304E
:1054B0006D1C9542F5DB0020E0E70220DEE770B5C9
:1054C00005460C4604B970BD20480C3850F825003C
:1054D000261A31462846FFF7C3FF00BFF3E770B531
:1054E00004460E4631462046FFF769FF0546681C14
:1054F00008B9002070BD15480C3850F82400284425
:10550000F8E72DE9F04104460F461646314620469D
:10551000FFF755FF0546681C10B90020BDE8F08173
:105520000A490C3951F82410481932463946FFF718
:10553000F9FE39462046FFF7C2FF04480C3850F800
:1055400024002844EAE7000018BE00086400002098
:1055500030BE000824BE000810B58CB004461E23DF
:105560000BAA03A9204600F0E3FC0090009810B1BC
:1055700001200CB010BD9DF82C00044400200B90BD
:105580000EE0FA489DF82C2050F8221003A800F0F5
:1055900037FC00B908E09DF82C00401CC0B20B900D
:1055A0009DF82C000728ECD300BF9DF82C0007289D
:1055B00075D2DFE800F004050C2E5C88B30000BF54
:1055C000EBA006F0A9F8EBA006F0A6F8D3E0E8A05F
:1055D00006F0A2F8EAA006F09FF800200B900EE07B
:1055E000F74800689DF82C2000EBC2004168F5A048
:1055F00006F092F89DF82C00401CC0B20B90F048C9
:10560000007D9DF82C108842EADCD9A006F084F8D1
:10561000B1E0D7A006F080F8ECA006F07DF80020FD
:105620000B901AE0E64909689DF82C2001EBC201B5
:1056300001AB02AA486803A900F0A0FCE04800689A
:105640009DF82C1050F8312003A9F0A006F064F862
:105650009DF82C00401CC0B20B90D948007D9DF8ED
:105660002C108842DEDCC2A006F056F883E0C0A011
:1056700006F052F80BAA03A9204600F05BFD9DF846
:105680002C00D0B9694603A800F0EDFB0B909DF803
:105690002C0028B9E2A0009906F03EF80FE068E07F
:1056A0009DF82C00042801D0022062E7DFA006F05C
:1056B00033F80120C249C87501E0022059E7ACA0C7
:1056C00006F02AF857E0AAA006F026F80BAA03A9CC
:1056D000204600F02FFD9DF82C00C8B9694603A8AC
:1056E00000F0C1FB0B909DF82C0020B9D4A00099CC
:1056F00006F012F80EE09DF82C00042801D00220DC
:1057000037E7D2A006F008F80020AD49C87501E0DF
:1057100002202EE796A005F0FFFF2CE094A005F0F4
:10572000FBFF0BAA03A9204600F004FD9DF82C0006
:10573000C8B9694603A800F096FB0B909DF82C00B1
:1057400078B99F49009881F8EC00084690F8EC0081
:1057500018B1C3A005F0E0FF07E0C8A005F0DCFF2A
:1057600003E0022005E7022003E781A005F0D4FF53
:1057700001E00120FDE600BF0020FAE6C6480088EF
:1057800020F00100C44908804FF6FF70C2491C3167
:1057900008600020C049143108608949C1F8F00050
:1057A0007047BD48008800F0010040B18448D0F83F
:1057B000F0004FF6FF7108448149C1F8F0008048BD
:1057C000D0F8F000B4491431096808447C49C1F8A4
:1057D000F0000846D0F8F000704710B5AE480088D9
:1057E00000F0010058B17649086980470020AA49B5
:1057F000143108604FF47A70A7491C310860A6483C
:10580000008820F00100A449088010BD38B5054685
:105810000C46A248006840F00400A04908609E4879
:105820001C300560001F04809B48001F008840F06A
:1058300001009949091F088097481038008840F0F6
:1058400001009549103908801E208DF800000320C2
:105850008DF801008DF8020001208DF803006846E4
:10586000FCF715F938BD10B5044604EBC40000EB95
:1058700004100122C2EB800081B24FF47A70FFF76E
:10588000C5FF01204E49C87510BD30B595B005461D
:1058900013AB12AA09A9284600F070FB044614B104
:1058A000204615B030BD0020149026E04449096818
:1058B0009DF8502001EBC20113AB11AA486801A961
:1058C00000F05CFB04460CB12046EAE709A901A8F8
:1058D00000F096FA60B99DF844009DF8481088429F
:1058E00001DD0220DDE79DF85000354988750AE0AA
:1058F0009DF85000401CC0B214903148007D9DF8C6
:1059000050108842D2DC00BF2D48007D9DF8501019
:10591000884201D10420C4E714A9284600F07BFC8A
:1059200004460CB12046BCE79DF850002449487558
:105930000020B6E72DE9F0419AB02148847D007D32
:10594000A04202DC1AB0BDE8F0811D49096801EBF4
:10595000C40106AB07AA486808A900F00FFB08A914
:105960004FA005F0D9FE0026E3E0000074000020FF
:105970000D0A0000D6B8C1EECAA7D0A70D0A0000D4
:105980002D2D2D2D2D2D2D2D2D2D2D2D2D2D2D2D47
:105990002D2D2D2D2D2D2D2D2DBAAFCAFDC7E5B5E1
:1059A000A52D2D2D2D2D2D2D2D2D2D2D2D2D2D2DAF
:1059B0002D2D2D2D2D2D2D2D2D2D2D2D200D0A0094
:1059C000C000002025730D0A000000002D2D2D2D94
:1059D0002D2D2D2D2D2D2D2D2D2D2D2D2D2D2D2DF7
:1059E0002D2D2D2D2DBAAFCAFD204944202D2D2D52
:1059F0002D2D2D2D2D2D2D2D2D2D2D2D2D2D2D2DD7
:105A00002D2D2D2D2D2D2D2D200D0A0025732069D6
:105A1000642069733A0D0A3058253038580D0A0051
:105A20004845583A305825580D0A00003136BDF81F
:105A3000D6C6B2CECAFDCFD4CABE210D0A00000020
:105A40004445433A256C750D0A0000003130BDF81D
:105A5000D6C6B2CECAFDCFD4CABE210D0A00000000
:105A600052756E2054696D652043616C63756C617D
:105A700074696F6E204F4E0D0A00000052756E2043
:105A800054696D652043616C63756C6174696F6EF8
:105A9000204F46460D0A00001008004040380240E2
:105AA0000D0A257328000000B048008B0121B14089
:105AB0000840D8B12221AEA005F02EFE304600F0FD
:105AC0009DFBAA49243147183946AAA005F024FEB7
:105AD0002221A7A005F020FE304600F08FFBA3494D
